:100000000C945D000C9473030C944C030C948500C9
:100010000C9485000C9485000C9485000C9485004C
:100020000C9485000C9485000C9485000C9485003C
:100030000C9485000C9485000C9485000C9485002C
:100040000C9402030C9485000C94D0020C94AA0228
:100050000C9485000C9485000C9485000C9485000C
:100060000C9485000C9485000000000024002700FB
:100070002A0000000000250028002B0004040404CE
:100080000404040402020202020203030303030342
:10009000010204081020408001020408102001021F
:1000A00004081020000000080002010000030407FB
:1000B0000000000000000000EC0411241FBECFEF80
:1000C000D8E0DEBFCDBF11E0A0E0B1E0EAE0FEE0A5
:1000D00002C005900D92AC34B107D9F721E0ACE431
:1000E000B1E001C01D92AC3FB207E1F710E0CDE5F1
:1000F000D0E004C02197FE010E94E906CC35D1076B
:10010000C9F70E949A030C9403070C940000809195
:10011000570190915801A0915901B0915A0101964F
:10012000A11DB11D8093570190935801A0935901CF
:10013000B0935A010895CF92DF92EF92FF920F93FE
:100140001F93CF93DF936C017A018B01C0E0D0E065
:10015000CE15DF0589F0D8016D918D01D601ED91A5
:10016000FC910190F081E02DC6010995892B11F4D5
:100170007E0102C02196ECCFC701DF91CF911F9184
:100180000F91FF90EF90DF90CF900895089580E059
:1001900090E00895FC01538D448D252F30E0842F8D
:1001A00090E0821B930B541710F0CF96089501979F
:1001B0000895FC01918D828D981761F0828DDF0189
:1001C000A80FB11D5D968C91928D9F5F9F73928F4A
:1001D00090E008958FEF9FEF0895FC01918D828D3F
:1001E000981731F0828DE80FF11D858D90E008950C
:1001F0008FEF9FEF0895FC01918D228D892F90E064
:10020000805C9F4F821B91098F73992708958FE51A
:1002100091E00E94FB0021E0892B09F420E0822F6D
:100220000895FC01848DDF01A80FB11DA35ABF4FB3
:100230002C91848D90E001968F739927848FA689E5
:10024000B7892C93A089B1898C9180648C93938D0C
:10025000848D981306C00288F389E02D80818F7DFC
:1002600080830895EF92FF920F931F93CF93DF93B4
:10027000EC0181E0888F9B8D8C8D981305C0E889F7
:10028000F989808185FD24C0F62E0B8D10E00F5F6B
:100290001F4F0F731127E02E8C8DE8120CC00FB684
:1002A00007FCFACFE889F989808185FFF5CFCE0177
:1002B0000E941101F1CF8B8DFE01E80FF11DE35A71
:1002C000FF4FF0820B8FEA89FB898081806207C033
:1002D000EE89FF896083E889F98980818064808361
:1002E00081E090E0DF91CF911F910F91FF90EF900F
:1002F0000895CF93DF93EC01888D8823C9F0EA89B4
:10030000FB89808185FD05C0A889B9898C9186FD0E
:100310000FC00FB607FCF5CF808185FFF2CFA8890B
:10032000B9898C9185FFEDCFCE010E941101E7CFF5
:10033000DF91CF91089580E090E0892B29F00E9411
:10034000070181110C940000089590E0FC01EC5528
:10035000FF4F3491FC01E057FF4F2491FC01E4581A
:10036000FF4FE491EE2309F43BC0332339F13330DE
:1003700091F038F43130A9F0323001F584B58F7D39
:1003800012C0373091F03830A1F03430B9F4809198
:1003900080008F7D03C0809180008F7780938000E4
:1003A0000DC084B58F7784BD09C08091B0008F7770
:1003B00003C08091B0008F7D8093B000F0E0EE0F1D
:1003C000FF1FEE58FF4FA591B4918FB7F894EC91B1
:1003D000611103C020952E2301C02E2B2C938FBFBB
:1003E0000895CF93DF9390E0FC01E057FF4F2491F5
:1003F000FC01E458FF4F8491882361F190E0880F5D
:10040000991FFC01E859FF4FC591D491FC01EE58AA
:10041000FF4FA591B491611109C09FB7F8948881ED
:10042000209582238883EC912E230BC0623061F4E7
:100430009FB7F8943881822F809583238883EC912D
:100440002E2B2C939FBF06C08FB7F894E8812E2BDC
:1004500028838FBFDF91CF9108950895009769F0A9
:10046000FC0101900020E9F73197AF01481B590BBF
:10047000BC018FE591E00C949B0080E090E0089532
:100480008F929F92AF92BF920F931F93CF93DF9360
:10049000CDB7DEB7A1970FB6F894DEBF0FBECDBFC4
:1004A00019A2423008F44AE08E010F5D1F4F842EDE
:1004B000912CA12CB12CA50194010E94BC06E62F21
:1004C000B901CA0101501109EA3014F4E05D01C01C
:1004D000E95CD801EC93232B242B252B61F7C80171
:1004E0000E942E02A1960FB6F894DEBF0FBECDBFBC
:1004F000DF91CF911F910F91BF90AF909F908F9000
:100500000895CF92DF92EF92FF92CF93DF936B012A
:100510007C01E0915F01F09160010190F081E02D9C
:100520006DE28FE591E00995EC0166277727CB0115
:100530006C197D098E099F094AE00E9440028C0FC8
:100540009D1FDF91CF91FF90EF90DF90CF900895A6
:100550000E94FE061F920F920FB60F9211242F9346
:100560003F934F935F936F937F938F939F93AF933B
:10057000BF93EF93FF938FE591E00E941101FF91EC
:10058000EF91BF91AF919F918F917F916F915F910B
:100590004F913F912F910F900FBE0F901F90189584
:1005A0001F920F920FB60F9211242F938F939F9348
:1005B000EF93FF93E0916F01F09170018081E091E2
:1005C0007501F091760182FD12C0908180917801D1
:1005D0008F5F8F7320917901821751F0E09178013C
:1005E000F0E0E15AFE4F958F8093780101C0808141
:1005F000FF91EF919F918F912F910F900FBE0F90D0
:100600001F9018951F920F920FB60F9211242F93DF
:100610003F938F939F93AF93BF938091510190919C
:100620005201A0915301B09154013091500123E047
:10063000230F2D3720F40196A11DB11D05C026E81A
:10064000230F0296A11DB11D2093500180935101EB
:1006500090935201A0935301B093540180914C01A7
:1006600090914D01A0914E01B0914F010196A11DB5
:10067000B11D80934C0190934D01A0934E01B09316
:100680004F01BF91AF919F918F913F912F910F900B
:100690000FBE0F901F9018951F920F920FB60F92DA
:1006A00011242F933F934F935F936F937F938F9377
:1006B0009F93AF93BF93EF93FF93E0910201F0916B
:1006C00003010995FF91EF91BF91AF919F918F9198
:1006D0007F916F915F914F913F912F910F900FBE3E
:1006E0000F901F9018951F920F920FB60F92112422
:1006F0002F933F934F935F936F937F938F939F932A
:10070000AF93BF93EF93FF93E0910001F09101014C
:100710000995FF91EF91BF91AF919F918F917F913B
:100720006F915F914F913F912F910F900FBE0F905E
:100730001F901895789484B5826084BD84B58160DB
:1007400084BD85B5826085BD85B5816085BD80919C
:100750006E00816080936E00109281008091810014
:10076000826080938100809181008160809381000C
:10077000809180008160809380008091B1008460CE
:100780008093B1008091B00081608093B00080912F
:100790007A00846080937A0080917A0082608093EE
:1007A0007A0080917A00816080937A0080917A004B
:1007B000806880937A001092C100E0916F01F091FF
:1007C000700182E08083E0916B01F0916C011082F6
:1007D000E0916D01F0916E018FEC808310927701B2
:1007E000E0917301F091740186E08083E0917101E2
:1007F000F0917201808180618083E0917101F091BC
:100800007201808188608083E0917101F0917201B2
:10081000808180688083E0917101F0917201808114
:100820008F7D808361E085E00E94F10161E08CE0D2
:100830000E94F10161E08DE00E94F10162E083E03D
:100840000E94F10187E890E09093030180930201F8
:10085000809169008C6080936900E99A2FB7F894C1
:100860008091510190915201A0915301B091540196
:100870002FBF40915B0150915C0160915D017091CF
:100880005E01841B950BA60BB70B843F9140A1051D
:10089000B10508F49EC02FB7F89480915101909152
:1008A0005201A0915301B09154012FBF80935B017D
:1008B00090935C01A0935D01B0935E01209157017C
:1008C000309158014091590150915A01ACE3B0E088
:1008D0000E94DE060E9430062DEC3CEC44E753E417
:1008E0000E9486059B01AC010E941A050E94F80532
:1008F000709356016093550161E08CE00E94A50160
:1009000060E08DE00E94A50161E085E00E94F101B8
:1009100061E085E00E94A501609157017091580146
:100920008091590190915A0197FF03C00E94810262
:1009300003C04AE00E94400286E191E00E942E023C
:100940004AE064EF70E080E090E00E944002E091B5
:100950005F01F09160010190F081E02D6EE28FE582
:1009600091E009954AE068E070E080E090E00E9444
:1009700040024AE060E070E0CB010E94400280E269
:1009800091E00E942E026091550170915601072E50
:10099000000C880B990B97FF03C00E94810203C0D3
:1009A0004AE00E94400284E491E00E942E0289E421
:1009B00091E00E942E02609155018FE591E00E9426
:1009C0003201109257011092580110925901109261
:1009D0005A010E949B0142CFEFE5F1E0138212829F
:1009E00088EE93E0A0E0B0E084839583A683B7838C
:1009F00088E091E09183808385EC90E095878487FF
:100A000084EC90E09787868780EC90E0918B808BD8
:100A100081EC90E0938B828B82EC90E0958B848BC1
:100A200086EC90E0978B868B118E128E138E148E2F
:100A300008955058BB27AA270E9431050C948206BE
:100A40000E94740638F00E947B0620F039F49F3F24
:100A500019F426F40C9471060EF4E095E7FB0C945F
:100A60006B06E92F0E94930658F3BA1762077307C3
:100A70008407950720F079F4A6F50C94B5060EF4DA
:100A8000E0950B2EBA2FA02D0B01B90190010C019E
:100A9000CA01A0011124FF27591B99F0593F50F4B6
:100AA000503E68F11A16F040A22F232F342F44270E
:100AB000585FF3CF469537952795A795F040539506
:100AC000C9F77EF41F16BA0B620B730B840BBAF0D6
:100AD0009150A1F0FF0FBB1F661F771F881FC2F741
:100AE0000EC0BA0F621F731F841F48F48795779555
:100AF0006795B795F7959E3F08F0B0CF9395880F0F
:100B000008F09927EE0F9795879508950E949A050A
:100B10000C9482060E947B0658F00E94740640F0F6
:100B200029F45F3F29F00C946B0651110C94B60622
:100B30000C9471060E94930668F39923B1F3552330
:100B400091F3951B550BBB27AA27621773078407E0
:100B500038F09F5F5F4F220F331F441FAA1FA9F376
:100B600035D00E2E3AF0E0E832D091505040E69564
:100B7000001CCAF72BD0FE2F29D0660F771F881FC5
:100B8000BB1F261737074807AB07B0E809F0BB0BB8
:100B9000802DBF01FF2793585F4F3AF09E3F5105CC
:100BA00078F00C946B060C94B6065F3FE4F3983E25
:100BB000D4F3869577956795B795F7959F5FC9F7B5
:100BC000880F911D9695879597F90895E1E0660F36
:100BD000771F881FBB1F621773078407BA0720F0AF
:100BE000621B730B840BBA0BEE1F88F7E095089518
:100BF0000E94FF056894B1110C94B60608950E94F6
:100C00009B0688F09F5798F0B92F9927B751B0F0FD
:100C1000E1F0660F771F881F991F1AF0BA95C9F780
:100C200014C0B13091F00E94B506B1E008950C9463
:100C3000B506672F782F8827B85F39F0B93FCCF316
:100C4000869577956795B395D9F73EF490958095FD
:100C5000709561957F4F8F4F9F4F0895E89409C01D
:100C600097FB3EF490958095709561957F4F8F4FDF
:100C70009F4F9923A9F0F92F96E9BB279395F695F5
:100C8000879577956795B795F111F8CFFAF4BB0F73
:100C900011F460FF1BC06F5F7F4F8F4F9F4F16C0D7
:100CA000882311F096E911C0772321F09EE8872F61
:100CB000762F05C0662371F096E8862F70E060E01D
:100CC0002AF09A95660F771F881FDAF7880F969596
:100CD000879597F9089597F99F6780E870E060E03D
:100CE00008959FEF80EC089500240A9416161706C5
:100CF00018060906089500240A941216130614060D
:100D000005060895092E0394000C11F4882352F06F
:100D1000BB0F40F4BF2B11F460FF04C06F5F7F4F27
:100D20008F4F9F4F089557FD9058440F551F59F00E
:100D30005F3F71F04795880F97FB991F61F09F3FC8
:100D400079F087950895121613061406551FF2CFF1
:100D50004695F1DF08C0161617061806991FF1CF41
:100D600086957105610508940895E894BB27662768
:100D70007727CB0197F90895A1E21A2EAA1BBB1B76
:100D8000FD010DC0AA1FBB1FEE1FFF1FA217B30757
:100D9000E407F50720F0A21BB30BE40BF50B661F6D
:100DA000771F881F991F1A9469F760957095809531
:100DB00090959B01AC01BD01CF0108950E94EF0603
:100DC000A59F900DB49F900DA49F800D911D11249F
:100DD0000895EE0FFF1F0590F491E02D0994A29F56
:100DE000B001B39FC001A39F700D811D1124911DFF
:100DF000B29F700D811D1124911D089581E090E036
:0A0E0000F8940C940307F894FFCF58
:100E0A002D022D020000000032019B00CA00790168
:100E1A00FB00D900ED002070756C7365202F20004F
:100E2A002070756C73652070657220726F746174BE
:100E3A00696F6E202A203630207365636F6E647383
:0C0E4A00203D20002052504D000D0A00F9
:00000001FF
