:100000000C945D000C94DF030C94B8030C948500F1
:100010000C9485000C9485000C9485000C9485004C
:100020000C9485000C9485000C9485000C9485003C
:100030000C9485000C9485000C9485000C9485002C
:100040000C946E030C9485000C943C030C941603E2
:100050000C9485000C9485000C9485000C9485000C
:100060000C9485000C9485000000000024002700FB
:100070002A0000000000250028002B0004040404CE
:100080000404040402020202020203030303030342
:10009000010204081020408001020408102001021F
:1000A00004081020000000080002010000030407FB
:1000B0000000000000000000130611241FBECFEF57
:1000C000D8E0DEBFCDBF11E0A0E0B1E0E8E9F1E1AA
:1000D00002C005900D92A836B107D9F722E0A8E634
:1000E000B1E001C01D92AA31B207E1F710E0CDE501
:1000F000D0E004C02197FE010E94B008CC35D107A2
:10010000C9F70E9406040C94CA080C940000E09100
:100110007D01F0917E010190F081E02D682F8DE747
:1001200091E009948091730190917401A0917501FF
:10013000B09176010196A11DB11D8093730190933A
:100140007401A0937501B09376010895CF92DF9268
:10015000EF92FF920F931F93CF93DF936C017A017D
:100160008B01C0E0D0E0CE15DF0589F0D8016D919C
:100170008D01D601ED91FC910190F081E02DC60139
:100180000995892B11F47E0102C02196ECCFC7019D
:10019000DF91CF911F910F91FF90EF90DF90CF9063
:1001A0000895089580E090E00895FC01538D448DFA
:1001B000252F30E0842F90E0821B930B541710F012
:1001C000CF96089501970895FC01918D828D98171F
:1001D00061F0828DDF01A80FB11D5D968C91928D2B
:1001E0009F5F9F73928F90E008958FEF9FEF089528
:1001F000FC01918D828D981731F0828DE80FF11DF1
:10020000858D90E008958FEF9FEF0895FC01918D0B
:10021000228D892F90E0805C9F4F821B91098F7304
:10022000992708958DE791E00E94060121E0892B2E
:1002300009F420E0822F0895FC01848DDF01A80FCE
:10024000B11DA35ABF4F2C91848D90E001968F73FE
:100250009927848FA689B7892C93A089B1898C911D
:1002600080648C93938D848D981306C00288F389E3
:10027000E02D80818F7D80830895EF92FF920F9310
:100280001F93CF93DF93EC0181E0888F9B8D8C8D42
:10029000981305C0E889F989808185FD24C0F62E70
:1002A0000B8D10E00F5F1F4F0F731127E02E8C8D09
:1002B000E8120CC00FB607FCFACFE889F9898081F3
:1002C00085FFF5CFCE010E941C01F1CF8B8DFE0181
:1002D000E80FF11DE35AFF4FF0820B8FEA89FB898B
:1002E0008081806207C0EE89FF896083E889F9898F
:1002F00080818064808381E090E0DF91CF911F91C5
:100300000F91FF90EF900895CF93DF93EC01888DCC
:100310008823C9F0EA89FB89808185FD05C0A88909
:10032000B9898C9186FD0FC00FB607FCF5CF80818F
:1003300085FFF2CFA889B9898C9185FFEDCFCE01D9
:100340000E941C01E7CFDF91CF91089580E090E0FB
:10035000892B29F00E94120181110C94000008954C
:1003600090E0FC01EC55FF4F3491FC01E057FF4F4A
:100370002491FC01E458FF4FE491EE2309F43BC0C3
:10038000332339F1333091F038F43130A9F0323081
:1003900001F584B58F7D12C0373091F03830A1F06F
:1003A0003430B9F4809180008F7D03C0809180004B
:1003B0008F77809380000DC084B58F7784BD09C08E
:1003C0008091B0008F7703C08091B0008F7D8093C3
:1003D000B000F0E0EE0FFF1FEE58FF4FA591B49173
:1003E0008FB7F894EC91611103C020952E2301C0C2
:1003F0002E2B2C938FBF0895CF93DF9390E0FC01B9
:10040000E057FF4F2491FC01E458FF4F849188236B
:1004100061F190E0880F991FFC01E859FF4FC591E9
:10042000D491FC01EE58FF4FA591B491611109C020
:100430009FB7F8948881209582238883EC912E239E
:100440000BC0623061F49FB7F8943881822F809599
:1004500083238883EC912E2B2C939FBF06C08FB7EC
:10046000F894E8812E2B28838FBFDF91CF910895D8
:100470000895009769F0FC0101900020E9F7319799
:10048000AF01481B590BBC018DE791E00C94A6000D
:1004900080E090E008958F929F92AF92BF920F9369
:1004A0001F93CF93DF93CDB7DEB7A1970FB6F89424
:1004B000DEBF0FBECDBF19A2423008F44AE08E0164
:1004C0000F5D1F4F842E912CA12CB12CA5019401FE
:1004D0000E948308E62FB901CA0101501109EA30D0
:1004E00014F4E05D01C0E95CD801EC93232B242BCC
:1004F000252B61F7C8010E943902A1960FB6F89426
:10050000DEBF0FBECDBFDF91CF911F910F91BF9086
:10051000AF909F908F9008958F929F92AF92BF92CD
:10052000CF92DF92EF92FF920F931F93CF93DF93BF
:100530006B017C01142F20E030E0A9010E94AD0680
:1005400087FF09C08DE20E948700EC01F7FAF09462
:10055000F7F8F09402C0C0E0D0E000E060E070E0A6
:1005600080E09FE3011741F020E030E040E251E4F9
:100570000E94B2060F5FF6CF9B01AC01C701B60126
:100580000E9441066B017C010E942B074B015C011C
:100590000E945A079B01AC01C701B6010E944006A8
:1005A0006B017C014AE0C501B4010E944B02C80FF7
:1005B000D91F112329F08EE20E948700C80FD91F8E
:1005C000112321F120E030E040E251E4C701B601FF
:1005D0000E9411084B015C010E942B076B01E12C6A
:1005E000F12C4AE0C701B6010E944B02C80FD91F87
:1005F000C701B6010E945A079B01AC01C501B401B5
:100600000E9440066B017C011150DACFCE01DF91D0
:10061000CF911F910F91FF90EF90DF90CF90BF90FF
:10062000AF909F908F9008950E94C5081F920F92DF
:100630000FB60F9211242F933F934F935F936F93B5
:100640007F938F939F93AF93BF93EF93FF938DE728
:1006500091E00E941C01FF91EF91BF91AF919F919A
:100660008F917F916F915F914F913F912F910F905B
:100670000FBE0F901F9018951F920F920FB60F92FA
:1006800011242F938F939F93EF93FF93E0918D010C
:10069000F0918E018081E0919301F091940182FDAF
:1006A00012C09081809196018F5F8F732091970186
:1006B000821751F0E0919601F0E0E358FE4F958FDC
:1006C0008093960101C08081FF91EF919F918F915E
:1006D0002F910F900FBE0F901F9018951F920F92A1
:1006E0000FB60F9211242F933F938F939F93AF9345
:1006F000BF9380916D0190916E01A0916F01B091B7
:10070000700130916C0123E0230F2D3720F4019606
:10071000A11DB11D05C026E8230F0296A11DB11D24
:1007200020936C0180936D0190936E01A0936F01F3
:10073000B09370018091680190916901A0916A0164
:10074000B0916B010196A11DB11D8093680190933A
:100750006901A0936A01B0936B01BF91AF919F9122
:100760008F913F912F910F900FBE0F901F90189572
:100770001F920F920FB60F9211242F933F934F9316
:100780005F936F937F938F939F93AF93BF93EF93F9
:10079000FF93E0910201F09103010995FF91EF9120
:1007A000BF91AF919F918F917F916F915F914F9189
:1007B0003F912F910F900FBE0F901F9018951F9291
:1007C0000F920FB60F9211242F933F934F935F9385
:1007D0006F937F938F939F93AF93BF93EF93FF9309
:1007E000E0910001F09101010995FF91EF91BF9116
:1007F000AF919F918F917F916F915F914F913F91B9
:100800002F910F900FBE0F901F901895789484B57C
:10081000826084BD84B5816084BD85B5826085BDFC
:1008200085B5816085BD80916E00816080936E008A
:10083000109281008091810082608093810080917C
:10084000810081608093810080918000816080932D
:1008500080008091B10084608093B1008091B000ED
:1008600081608093B00080917A00846080937A00E8
:1008700080917A00826080937A0080917A00816012
:1008800080937A0080917A00806880937A00109239
:10089000C100E0918D01F0918E0182E08083E091B2
:1008A0008901F0918A011082E0918B01F0918C0115
:1008B0008FEC808310929501E0919101F09192016B
:1008C00086E08083E0918F01F091900180818061CA
:1008D0008083E0918F01F091900180818860808316
:1008E000E0918F01F0919001808180688083E09198
:1008F0008F01F091900180818F7D808380918100B4
:10090000887F82608093810061E08CE00E94FC011E
:1009100061E08DE00E94FC0162E083E00E94FC0146
:1009200082E990E090930301809302018091690035
:100930008C6080936900E99A0EEA10E02FB7F89472
:1009400080916D0190916E01A0916F01B091700145
:100950002FBF4091790150917A0160917B01709194
:100960007C01841B950BA60BB70B883E9340A10519
:10097000B10508F455C180917701909178018F3FBE
:1009800091050CF04DC12FB7F89480916D019091B5
:100990006E01A0916F01B09170012FBF809379011A
:1009A00090937A01A0937B01B0937C012091730115
:1009B000309174014091750150917601ACE3B0E043
:1009C0000E94A5080E945C072DEC3CEC44E753E430
:1009D0000E94B2060E942407709372016093710115
:1009E000C0917701D09178012196D0937801C0937E
:1009F000770161E08CE00E94B00160E08DE00E9430
:100A0000B00161E08AE00E94FC01209711F460E0EF
:100A100004C0CF3FD10529F461E08AE00E94B00113
:100A200042C0F80184918330F9F048F48130B9F084
:100A30008230A1F584B5806284BDC8BD34C08730E2
:100A4000E9F0883019F1843049F5809180008062A6
:100A500080938000D0938B00C0938A0024C084B51B
:100A6000806884BDC7BD1FC080918000806880936E
:100A70008000D0938900C093880015C08091B00099
:100A800080688093B000C093B3000DC08091B00027
:100A900080628093B000C093B40005C0C038D10517
:100AA0000CF0BACFB4CF86E191E00E943902609198
:100AB000770170917801072E000C880B990B0E942A
:100AC0005C0720E030E04FE753E40E94B20620E0EC
:100AD00030E048EC52E40E9411086B017C019B015C
:100AE000AC010E947E08882319F083E291E01AC0CD
:100AF00046015701E894B7F82FEF3FEF4FE75FE764
:100B0000C501B4010E947E0881110FC02FEF3FEF95
:100B10004FE75FE7C501B4010E94AD0618162CF43B
:100B200087E291E00E9439021CC02FEF3FEF4FE7B0
:100B30005FE4C701B6010E940C0818161CF48BE292
:100B400091E0F0CF2FEF3FEF4FE75FECC701B60129
:100B50000E94AD0687FDF3CF42E0C701B6010E94B7
:100B60008C028FE291E00E943902C0907301D09014
:100B70007401E0907501F0907601F7FE0CC08DE2F3
:100B80000E94870066277727CB016C197D098E09A3
:100B90009F094AE003C04AE0C701B6010E944B0228
:100BA00081E391E00E94390242E06DEC7CEC84E745
:100BB00093E40E948C028BE391E00E943902C09082
:100BC0007101D09072010D2C000CEE08FF08F7FEA9
:100BD0000CC08DE20E94870066277727CB016C1935
:100BE0007D098E099F094AE003C04AE0C701B601AA
:100BF0000E944B028FE591E00E94390284E691E069
:100C00000E943902609171018DE791E00E943D01DF
:100C10001092730110927401109275011092760176
:100C20000E94A6018BCEEDE7F1E01382128288EEDE
:100C300093E0A0E0B0E084839583A683B78388E047
:100C400091E09183808385EC90E09587848784ECA4
:100C500090E09787868780EC90E0918B808B81EC89
:100C600090E0938B828B82EC90E0958B848B86EC6A
:100C700090E0978B868B118E128E138E148E0895B2
:100C80005058BB27AA270E9458060C94D2070E94EE
:100C9000C40738F00E94CB0720F039F49F3F19F4C5
:100CA00026F40C94C1070EF4E095E7FB0C94BB0707
:100CB000E92F0E94E30758F3BA1762077307840706
:100CC000950720F079F4A6F50C9405080EF4E0954C
:100CD0000B2EBA2FA02D0B01B90190010C01CA01F6
:100CE000A0011124FF27591B99F0593F50F4503EA1
:100CF00068F11A16F040A22F232F342F4427585F93
:100D0000F3CF469537952795A795F0405395C9F7AA
:100D10007EF41F16BA0B620B730B840BBAF0915062
:100D2000A1F0FF0FBB1F661F771F881FC2F70EC001
:100D3000BA0F621F731F841F48F4879577956795D4
:100D4000B795F7959E3F08F0B0CF9395880F08F0C0
:100D50009927EE0F9795879508950E94970708F4B5
:100D600081E008950E94C6060C94D2070E94CB072A
:100D700058F00E94C40740F029F45F3F29F00C941A
:100D8000BB0751110C9406080C94C1070E94E3079D
:100D900068F39923B1F3552391F3951B550BBB27AA
:100DA000AA2762177307840738F09F5F5F4F220FEF
:100DB000331F441FAA1FA9F335D00E2E3AF0E0E8E6
:100DC00032D091505040E695001CCAF72BD0FE2F30
:100DD00029D0660F771F881FBB1F261737074807C4
:100DE000AB07B0E809F0BB0B802DBF01FF2793587C
:100DF0005F4F3AF09E3F510578F00C94BB070C947E
:100E000006085F3FE4F3983ED4F38695779567959F
:100E1000B795F7959F5FC9F7880F911D96958795B0
:100E200097F90895E1E0660F771F881FBB1F6217CF
:100E300073078407BA0720F0621B730B840BBA0B8D
:100E4000EE1F88F7E09508950E942B076894B11172
:100E50000C94060808950E94EB0788F09F5798F0BD
:100E6000B92F9927B751B0F0E1F0660F771F881FAF
:100E7000991F1AF0BA95C9F714C0B13091F00E94C9
:100E80000508B1E008950C940508672F782F88278E
:100E9000B85F39F0B93FCCF3869577956795B395F0
:100EA000D9F73EF490958095709561957F4F8F4F5F
:100EB0009F4F0895E89409C097FB3EF49095809564
:100EC000709561957F4F8F4F9F4F9923A9F0F92F10
:100ED00096E9BB279395F695879577956795B7958E
:100EE000F111F8CFFAF4BB0F11F460FF1BC06F5F74
:100EF0007F4F8F4F9F4F16C0882311F096E911C086
:100F0000772321F09EE8872F762F05C0662371F0A6
:100F100096E8862F70E060E02AF09A95660F771FBA
:100F2000881FDAF7880F9695879597F90895990F96
:100F30000008550FAA0BE0E8FEEF16161706E807A3
:100F4000F907C0F012161306E407F50798F0621BC4
:100F5000730B840B950B39F40A2661F0232B242B99
:100F6000252B21F408950A2609F4A140A6958FEFB8
:100F7000811D811D089597F99F6780E870E060E00A
:100F800008959FEF80EC089500240A941616170622
:100F900018060906089500240A941216130614066A
:100FA00005060895092E0394000C11F4882352F0CD
:100FB000BB0F40F4BF2B11F460FF04C06F5F7F4F85
:100FC0008F4F9F4F089557FD9058440F551F59F06C
:100FD0005F3F71F04795880F97FB991F61F09F3F26
:100FE00079F087950895121613061406551FF2CF4F
:100FF0004695F1DF08C0161617061806991FF1CF9F
:1010000086957105610508940895E894BB276627C5
:101010007727CB0197F908950E94970708F48FEF7F
:1010200008950E9424080C94D2070E94C40738F047
:101030000E94CB0720F0952311F00C94BB070C9471
:10104000C10711240C9406080E94E30770F3959FD2
:10105000C1F3950F50E0551F629FF001729FBB27AF
:10106000F00DB11D639FAA27F00DB11DAA1F649F4B
:101070006627B00DA11D661F829F2227B00DA11DFE
:10108000621F739FB00DA11D621F839FA00D611D84
:10109000221F749F3327A00D611D231F849F600DA5
:1010A000211D822F762F6A2F11249F5750409AF0CE
:1010B000F1F088234AF0EE0FFF1FBB1F661F771F5A
:1010C000881F91505040A9F79E3F510580F00C9425
:1010D000BB070C9406085F3FE4F3983ED4F3869573
:1010E00077956795B795F795E7959F5FC1F7FE2BC5
:1010F000880F911D9695879597F908950E949707F7
:10110000880B990B0895A1E21A2EAA1BBB1BFD01A7
:101110000DC0AA1FBB1FEE1FFF1FA217B307E407D6
:10112000F50720F0A21BB30BE40BF50B661F771F2E
:10113000881F991F1A9469F760957095809590950E
:101140009B01AC01BD01CF0108950E94B608A59F87
:10115000900DB49F900DA49F800D911D11240895B2
:10116000EE0FFF1F0590F491E02D0994A29FB001AE
:10117000B39FC001A39F700D811D1124911DB29FCB
:10118000700D811D1124911D089581E090E0F89467
:081190000C94CA08F894FFCF8B
:1011980038023802000000003D01A600D500840195
:1011A8000601E400F80044757479204379636C659E
:1011B8003A20006E616E00696E66006F76660009FF
:1011C800002070756C7365202F20002070756C737B
:1011D800652070657220726F746174696F6E202A61
:1011E800203630207365636F6E6473203D200020C5
:0811F80052504D000D0A0000E9
:107E0000112484B714BE81FFF0D085E080938100F7
:107E100082E08093C00088E18093C10086E0809377
:107E2000C20080E18093C4008EE0C9D0259A86E02C
:107E300020E33CEF91E0309385002093840096BBD3
:107E4000B09BFECF1D9AA8958150A9F7CC24DD24C4
:107E500088248394B5E0AB2EA1E19A2EF3E0BF2EE7
:107E6000A2D0813461F49FD0082FAFD0023811F036
:107E7000013811F484E001C083E08DD089C08234E0
:107E800011F484E103C0853419F485E0A6D080C0E4
:107E9000853579F488D0E82EFF2485D0082F10E0AE
:107EA000102F00270E291F29000F111F8ED06801E7
:107EB0006FC0863521F484E090D080E0DECF843638
:107EC00009F040C070D06FD0082F6DD080E0C81688
:107ED00080E7D80618F4F601B7BEE895C0E0D1E017
:107EE00062D089930C17E1F7F0E0CF16F0E7DF06D8
:107EF00018F0F601B7BEE89568D007B600FCFDCFD4
:107F0000A601A0E0B1E02C9130E011968C91119780
:107F100090E0982F8827822B932B1296FA010C0160
:107F200087BEE89511244E5F5F4FF1E0A038BF0790
:107F300051F7F601A7BEE89507B600FCFDCF97BE46
:107F4000E89526C08437B1F42ED02DD0F82E2BD052
:107F50003CD0F601EF2C8F010F5F1F4F84911BD097
:107F6000EA94F801C1F70894C11CD11CFA94CF0C13
:107F7000D11C0EC0853739F428D08EE10CD085E9AC
:107F80000AD08FE07ACF813511F488E018D01DD067
:107F900080E101D065CF982F8091C00085FFFCCF94
:107FA0009093C60008958091C00087FFFCCF809118
:107FB000C00084FD01C0A8958091C6000895E0E648
:107FC000F0E098E1908380830895EDDF803219F02E
:107FD00088E0F5DFFFCF84E1DECF1F93182FE3DFCA
:107FE0001150E9F7F2DF1F91089580E0E8DFEE27F6
:047FF000FF270994CA
:027FFE00040479
:0400000300007E007B
:00000001FF
